{
  "contractName": "CustomerTab",
  "abi": [
    {
      "inputs": [],
      "stateMutability": "nonpayable",
      "type": "constructor"
    },
    {
      "anonymous": false,
      "inputs": [
        {
          "indexed": false,
          "internalType": "uint256",
          "name": "unixTime",
          "type": "uint256"
        },
        {
          "indexed": false,
          "internalType": "string",
          "name": "itemID",
          "type": "string"
        },
        {
          "indexed": false,
          "internalType": "uint64",
          "name": "price",
          "type": "uint64"
        },
        {
          "indexed": true,
          "internalType": "address",
          "name": "customerPubkey",
          "type": "address"
        }
      ],
      "name": "ItemPaid",
      "type": "event"
    },
    {
      "anonymous": false,
      "inputs": [
        {
          "indexed": false,
          "internalType": "uint256",
          "name": "unixTime",
          "type": "uint256"
        },
        {
          "indexed": false,
          "internalType": "string",
          "name": "itemID",
          "type": "string"
        },
        {
          "indexed": false,
          "internalType": "uint64",
          "name": "price",
          "type": "uint64"
        },
        {
          "indexed": true,
          "internalType": "address",
          "name": "customerPubkey",
          "type": "address"
        }
      ],
      "name": "ItemSold",
      "type": "event"
    },
    {
      "inputs": [
        {
          "internalType": "address",
          "name": "_customerPubkey",
          "type": "address"
        },
        {
          "internalType": "string",
          "name": "_itemID",
          "type": "string"
        },
        {
          "internalType": "uint64",
          "name": "_price",
          "type": "uint64"
        }
      ],
      "name": "addSaleForCustomer",
      "outputs": [],
      "stateMutability": "nonpayable",
      "type": "function"
    },
    {
      "inputs": [
        {
          "internalType": "address",
          "name": "_customerPubkey",
          "type": "address"
        }
      ],
      "name": "getTabForCustomer",
      "outputs": [
        {
          "components": [
            {
              "internalType": "uint256",
              "name": "timeOfSale",
              "type": "uint256"
            },
            {
              "internalType": "string",
              "name": "itemID",
              "type": "string"
            },
            {
              "internalType": "uint64",
              "name": "price",
              "type": "uint64"
            }
          ],
          "internalType": "struct CustomerTab.Sale[]",
          "name": "",
          "type": "tuple[]"
        }
      ],
      "stateMutability": "view",
      "type": "function"
    },
    {
      "inputs": [
        {
          "internalType": "address",
          "name": "_customerPubkey",
          "type": "address"
        }
      ],
      "name": "resetTab",
      "outputs": [],
      "stateMutability": "nonpayable",
      "type": "function"
    },
    {
      "inputs": [
        {
          "internalType": "address",
          "name": "_customerPubkey",
          "type": "address"
        },
        {
          "internalType": "string",
          "name": "_itemID",
          "type": "string"
        }
      ],
      "name": "itemPaidByCustomer",
      "outputs": [],
      "stateMutability": "nonpayable",
      "type": "function"
    }
  ],
  "bytecode": "0x608060405234801561001057600080fd5b50336000806101000a81548173ffffffffffffffffffffffffffffffffffffffff021916908373ffffffffffffffffffffffffffffffffffffffff16021790555061112d806100606000396000f3fe608060405234801561001057600080fd5b506004361061004c5760003560e01c8063185e1a42146100515780632071ef1a1461006d578063838bece11461009d578063c7c87422146100b9575b600080fd5b61006b60048036038101906100669190610b62565b6100d5565b005b61008760048036038101906100829190610b39565b610476565b6040516100949190610ea7565b60405180910390f35b6100b760048036038101906100b29190610b39565b6105f2565b005b6100d360048036038101906100ce9190610bba565b61079f565b005b60008054906101000a900473ffffffffffffffffffffffffffffffffffffffff1673ffffffffffffffffffffffffffffffffffffffff163373ffffffffffffffffffffffffffffffffffffffff1614610163576040517f08c379a000000000000000000000000000000000000000000000000000000000815260040161015a90610ec9565b60405180910390fd5b6000600160008573ffffffffffffffffffffffffffffffffffffffff1673ffffffffffffffffffffffffffffffffffffffff168152602001908152602001600020905060008180549050905060005b8181101561046e576101c261092e565b8382815481106101ce57fe5b906000526020600020906003020160405180606001604052908160008201548152602001600182018054600181600116156101000203166002900480601f01602080910402602001604051908101604052809291908181526020018280546001816001161561010002031660029004801561028a5780601f1061025f5761010080835404028352916020019161028a565b820191906000526020600020905b81548152906001019060200180831161026d57829003601f168201915b505050505081526020016002820160009054906101000a900467ffffffffffffffff1667ffffffffffffffff1667ffffffffffffffff1681525050905085856040516102d7929190610e8e565b6040518091039020816020015180519060200120141561034c578673ffffffffffffffffffffffffffffffffffffffff167fdca72ee95304df68034619c57220dbe3e5088a4d96a3cdd1198770ba9a5c3091428360200151846040015160405161034393929190610f29565b60405180910390a25b60018311156104605783600184038154811061036457fe5b906000526020600020906003020184838154811061037e57fe5b906000526020600020906003020160008201548160000155600182018160010190805460018160011615610100020316600290046103bd929190610959565b506002820160009054906101000a900467ffffffffffffffff168160020160006101000a81548167ffffffffffffffff021916908367ffffffffffffffff1602179055509050508380548061040e57fe5b600190038181906000526020600020906003020160008082016000905560018201600061043b91906109e0565b6002820160006101000a81549067ffffffffffffffff0219169055505090555061046e565b5080806001019150506101b2565b505050505050565b6060600160008373ffffffffffffffffffffffffffffffffffffffff1673ffffffffffffffffffffffffffffffffffffffff168152602001908152602001600020805480602002602001604051908101604052809291908181526020016000905b828210156105e7578382906000526020600020906003020160405180606001604052908160008201548152602001600182018054600181600116156101000203166002900480601f01602080910402602001604051908101604052809291908181526020018280546001816001161561010002031660029004801561059d5780601f106105725761010080835404028352916020019161059d565b820191906000526020600020905b81548152906001019060200180831161058057829003601f168201915b505050505081526020016002820160009054906101000a900467ffffffffffffffff1667ffffffffffffffff1667ffffffffffffffff1681525050815260200190600101906104d7565b505050509050919050565b60008054906101000a900473ffffffffffffffffffffffffffffffffffffffff1673ffffffffffffffffffffffffffffffffffffffff163373ffffffffffffffffffffffffffffffffffffffff1614610680576040517f08c379a000000000000000000000000000000000000000000000000000000000815260040161067790610ec9565b60405180910390fd5b6000600160008373ffffffffffffffffffffffffffffffffffffffff1673ffffffffffffffffffffffffffffffffffffffff1681526020019081526020016000209050600081805490509050600081111561079a5760005b828054905081101561074757828054806106ee57fe5b600190038181906000526020600020906003020160008082016000905560018201600061071b91906109e0565b6002820160006101000a81549067ffffffffffffffff02191690555050905580806001019150506106d8565b508273ffffffffffffffffffffffffffffffffffffffff167fdca72ee95304df68034619c57220dbe3e5088a4d96a3cdd1198770ba9a5c3091426000604051610791929190610f67565b60405180910390a25b505050565b6000600160008673ffffffffffffffffffffffffffffffffffffffff1673ffffffffffffffffffffffffffffffffffffffff1681526020019081526020016000209050600042905081604051806060016040528083815260200187878080601f016020809104026020016040519081016040528093929190818152602001838380828437600081840152601f19601f8201169050808301925050505050505081526020018567ffffffffffffffff1681525090806001815401808255809150506001900390600052602060002090600302016000909190919091506000820151816000015560208201518160010190805190602001906108a0929190610a28565b5060408201518160020160006101000a81548167ffffffffffffffff021916908367ffffffffffffffff16021790555050508573ffffffffffffffffffffffffffffffffffffffff167f521a270f0b3234ebe204b9052fe8ce77346c1b3e28446b54cddc7db9aafb2a9e8287878760405161091e9493929190610ee9565b60405180910390a2505050505050565b60405180606001604052806000815260200160608152602001600067ffffffffffffffff1681525090565b828054600181600116156101000203166002900490600052602060002090601f016020900481019282601f1061099257805485556109cf565b828001600101855582156109cf57600052602060002091601f016020900482015b828111156109ce5782548255916001019190600101906109b3565b5b5090506109dc9190610aa8565b5090565b50805460018160011615610100020316600290046000825580601f10610a065750610a25565b601f016020900490600052602060002090810190610a249190610aa8565b5b50565b828054600181600116156101000203166002900490600052602060002090601f016020900481019282601f10610a6957805160ff1916838001178555610a97565b82800160010185558215610a97579182015b82811115610a96578251825591602001919060010190610a7b565b5b509050610aa49190610aa8565b5090565b5b80821115610ac1576000816000905550600101610aa9565b5090565b600081359050610ad4816110c9565b92915050565b60008083601f840112610aec57600080fd5b8235905067ffffffffffffffff811115610b0557600080fd5b602083019150836001820283011115610b1d57600080fd5b9250929050565b600081359050610b33816110e0565b92915050565b600060208284031215610b4b57600080fd5b6000610b5984828501610ac5565b91505092915050565b600080600060408486031215610b7757600080fd5b6000610b8586828701610ac5565b935050602084013567ffffffffffffffff811115610ba257600080fd5b610bae86828701610ada565b92509250509250925092565b60008060008060608587031215610bd057600080fd5b6000610bde87828801610ac5565b945050602085013567ffffffffffffffff811115610bfb57600080fd5b610c0787828801610ada565b93509350506040610c1a87828801610b24565b91505092959194509250565b6000610c328383610e02565b905092915050565b6000610c4582610fb3565b610c4f8185610fd6565b935083602082028501610c6185610fa3565b8060005b85811015610c9d5784840389528151610c7e8582610c26565b9450610c8983610fc9565b925060208a01995050600181019050610c65565b50829750879550505050505092915050565b6000610cbb8385610fe7565b9350610cc8838584611076565b82840190509392505050565b610cdd81611064565b82525050565b6000610cef8385611003565b9350610cfc838584611076565b610d05836110b8565b840190509392505050565b6000610d1b82610fbe565b610d258185610ff2565b9350610d35818560208601611085565b610d3e816110b8565b840191505092915050565b6000610d5482610fbe565b610d5e8185611003565b9350610d6e818560208601611085565b610d77816110b8565b840191505092915050565b6000610d8f602583611003565b91507f4f6e6c7920746865206f776e65722063616e2063616c6c20746869732066756e60008301527f6374696f6e0000000000000000000000000000000000000000000000000000006020830152604082019050919050565b6000610df5600083611003565b9150600082019050919050565b6000606083016000830151610e1a6000860182610e52565b5060208301518482036020860152610e328282610d10565b9150506040830151610e476040860182610e70565b508091505092915050565b610e5b81611046565b82525050565b610e6a81611046565b82525050565b610e7981611050565b82525050565b610e8881611050565b82525050565b6000610e9b828486610caf565b91508190509392505050565b60006020820190508181036000830152610ec18184610c3a565b905092915050565b60006020820190508181036000830152610ee281610d82565b9050919050565b6000606082019050610efe6000830187610e61565b8181036020830152610f11818587610ce3565b9050610f206040830184610e7f565b95945050505050565b6000606082019050610f3e6000830186610e61565b8181036020830152610f508185610d49565b9050610f5f6040830184610e7f565b949350505050565b6000606082019050610f7c6000830185610e61565b8181036020830152610f8d81610de8565b9050610f9c6040830184610cd4565b9392505050565b6000819050602082019050919050565b600081519050919050565b600081519050919050565b6000602082019050919050565b600082825260208201905092915050565b600081905092915050565b600082825260208201905092915050565b600082825260208201905092915050565b600061101f82611026565b9050919050565b600073ffffffffffffffffffffffffffffffffffffffff82169050919050565b6000819050919050565b600067ffffffffffffffff82169050919050565b600061106f82611050565b9050919050565b82818337600083830152505050565b60005b838110156110a3578082015181840152602081019050611088565b838111156110b2576000848401525b50505050565b6000601f19601f8301169050919050565b6110d281611014565b81146110dd57600080fd5b50565b6110e981611050565b81146110f457600080fd5b5056fea26469706673582212205b6e3dc0716bf91d01abf0c572f58f9d7508efdb800e3989b4c5bce7ad3467ca64736f6c63430007000033",
  "immutableReferences": {},
  "source": "pragma solidity  ^0.7.0; \npragma experimental ABIEncoderV2; // ABI Encoder \n\ncontract CustomerTab {\n    \n    constructor() { owner = msg.sender; }\n    \n    address owner; \n    \n    modifier onlyOwner {\n        require(msg.sender == owner, \"Only the owner can call this function\");\n        _;\n    }\n    \n    struct Sale {\n        uint256 timeOfSale;\n        string itemID; \n        uint64 price; \n    }\n    \n    mapping(address => Sale[]) customerToSales;\n    \n    event ItemSold(\n        uint256 unixTime, \n        string itemID, \n        uint64 price, \n        address indexed customerPubkey\n        ); \n        \n    event ItemPaid( \n        uint256 unixTime, \n        string itemID, \n        uint64 price, \n        address indexed customerPubkey\n        );\n        \n    function addSaleForCustomer(address _customerPubkey, string calldata _itemID, uint64 _price) external { \n     Sale[] storage sales = customerToSales[_customerPubkey];\n     uint256 _unixTime = block.timestamp; \n     sales.push(Sale(_unixTime, _itemID, _price));\n     emit ItemSold(_unixTime, _itemID, _price, _customerPubkey);\n        \n    }\n    \n    function getTabForCustomer(address _customerPubkey) external view returns (Sale[] memory) { \n        return customerToSales[_customerPubkey];\n    }\n    \n    function resetTab(address _customerPubkey) external onlyOwner {\n    Sale[] storage sales = customerToSales[_customerPubkey]; \n    uint256 numItems = sales.length; \n    if (numItems > 0) {\n        for (uint256 ii = 0; ii < sales.length; ii++) {\n            sales.pop();\n            }\n        emit ItemPaid(block.timestamp, \"\", 0, _customerPubkey);\n        }\n    }\n    \n    function itemPaidByCustomer(address _customerPubkey, string calldata _itemID) external onlyOwner {\n        Sale[] storage items = customerToSales[_customerPubkey];\n        uint256 numItems = items.length;\n        for (uint256 ii = 0; ii < numItems; ii++) {\n            \n            Sale memory thisItem = items[ii];\n            \n            if (keccak256(bytes(thisItem.itemID)) == keccak256(bytes(_itemID))) { \n                emit ItemPaid(block.timestamp, thisItem.itemID, thisItem.price, _customerPubkey);\n        }\n            if (numItems > 1) {\n                items[ii] = items[numItems -1]; \n                items.pop();\n            break;\n              }\n           }\n        }\n}\n\n",
  "sourcePath": "/Users/Kirsty/Self-development/simple-DApp/contracts/CustomerTab.sol",
  "compiler": {
    "name": "solc",
    "version": "0.7.0+commit.9e61f92b.Emscripten.clang"
  },
  "schemaVersion": "3.3.2",
  "updatedAt": "2020-12-06T20:42:01.884Z",
  "devdoc": {
    "kind": "dev",
    "methods": {},
    "version": 1
  },
  "userdoc": {
    "kind": "user",
    "methods": {},
    "version": 1
  }
}